{
  "transactions": [
    {
      "hash": "0x14dd234c3267c22e69265265d43a788f140da35956f24dd0a704b68dd32637ac",
      "transactionType": "CALL",
      "contractName": null,
      "contractAddress": "0xc5fe9a6dacfda03fe3c8bc9816aba4be3b7acf99",
      "function": "setEthUsdAggregator(address)",
      "arguments": [
        "0x639Fe6ab55C921f74e7fac1ee960C0B6293ba612"
      ],
      "transaction": {
        "from": "0xae87f9bd09895f1aa21c5023b61ecd85eba515d1",
        "to": "0xc5fe9a6dacfda03fe3c8bc9816aba4be3b7acf99",
        "gas": "0x82024",
        "value": "0x0",
        "input": "0xa98acadc000000000000000000000000639fe6ab55c921f74e7fac1ee960c0b6293ba612",
        "nonce": "0x5e",
        "chainId": "0xa4b1"
      },
      "additionalContracts": [],
      "isFixedGasLimit": false
    }
  ],
  "receipts": [
    {
      "status": "0x1",
      "cumulativeGasUsed": "0x4eadf",
      "logs": [
        {
          "address": "0xc5fe9a6dacfda03fe3c8bc9816aba4be3b7acf99",
          "topics": [
            "0x98b60a60ba6130248e985ae4140dc3109d9c2980c7e435fed385e2756bc94461"
          ],
          "data": "0x0000000000000000000000000000000000000000000000000000000000000000000000000000000000000000639fe6ab55c921f74e7fac1ee960c0b6293ba612",
          "blockHash": "0xc572867a19c939b8b5d089742e4f8535a3a1c11abb0937104f0825206744780c",
          "blockNumber": "0x10669359",
          "transactionHash": "0x14dd234c3267c22e69265265d43a788f140da35956f24dd0a704b68dd32637ac",
          "transactionIndex": "0x1",
          "logIndex": "0x0",
          "removed": false
        }
      ],
      "logsBloom": "0x00000000000000000000000000000000000000000000000000000000000000000000000000000000000000000000000000000000000000000000000000000000000000000000000000000000400000000000000000000000000000000000000000000000000000000000000000000000000000000000000008000001000000000000000000000000000000000000000000000000000000000000000000000000000000000000000000000000000000000000000000000000000000000000000000000800000000000000000000000000000000000000000000000000000000010000000000000000002000000000000000000000000000000000000000000000",
      "type": "0x2",
      "transactionHash": "0x14dd234c3267c22e69265265d43a788f140da35956f24dd0a704b68dd32637ac",
      "transactionIndex": "0x1",
      "blockHash": "0xc572867a19c939b8b5d089742e4f8535a3a1c11abb0937104f0825206744780c",
      "blockNumber": "0x10669359",
      "gasUsed": "0x4eadf",
      "effectiveGasPrice": "0x989680",
      "from": "0xae87f9bd09895f1aa21c5023b61ecd85eba515d1",
      "to": "0xc5fe9a6dacfda03fe3c8bc9816aba4be3b7acf99",
      "contractAddress": null,
      "gasUsedForL1": "0x3c4b0",
      "l1BlockNumber": "0x14384ff"
    }
  ],
  "libraries": [],
  "pending": [],
  "returns": {},
  "timestamp": 1731783208,
  "chain": 42161,
  "commit": "cd0e1ef"
}