{
  "transactions": [
    {
      "hash": "0xeda4ca4209308ba3d9ec0c46834ae42c56d17997907d64c9cdee9453678dd6b5",
      "transactionType": "CALL",
      "contractName": null,
      "contractAddress": "0x5bbc7b2bfd7a149a60f4ce98e4ea3cd988efa3a3",
      "function": "createNewFund(address,string,string,address,uint256,bytes,bytes)",
      "arguments": [
        "0xaE87F9BD09895f1aA21c5023b61EcD85Eba515D1",
        "TT",
        "test trade",
        "0x82aF49447D8a07e3bd95BD0d56f35241523fBab1",
        "0",
        "0x",
        "0x"
      ],
      "transaction": {
        "from": "0xae87f9bd09895f1aa21c5023b61ecd85eba515d1",
        "to": "0x5bbc7b2bfd7a149a60f4ce98e4ea3cd988efa3a3",
        "gas": "0xe275b",
        "value": "0x0",
        "input": "0xc83980dd000000000000000000000000ae87f9bd09895f1aa21c5023b61ecd85eba515d100000000000000000000000000000000000000000000000000000000000000e0000000000000000000000000000000000000000000000000000000000000012000000000000000000000000082af49447d8a07e3bd95bd0d56f35241523fbab100000000000000000000000000000000000000000000000000000000000000000000000000000000000000000000000000000000000000000000000000000160000000000000000000000000000000000000000000000000000000000000018000000000000000000000000000000000000000000000000000000000000000025454000000000000000000000000000000000000000000000000000000000000000000000000000000000000000000000000000000000000000000000000000a746573742074726164650000000000000000000000000000000000000000000000000000000000000000000000000000000000000000000000000000000000000000000000000000000000000000000000000000000000000000000000000000",
        "nonce": "0x115",
        "chainId": "0xa4b1"
      },
      "additionalContracts": [],
      "isFixedGasLimit": false
    }
  ],
  "receipts": [
    {
      "status": "0x1",
      "cumulativeGasUsed": "0x647a0d",
      "logs": [
        {
          "address": "0x5bbc7b2bfd7a149a60f4ce98e4ea3cd988efa3a3",
          "topics": [
            "0x19dbe5ac5bcfdc5074f78d1e907e1dce6f6e3b50a56b50d990926abaf9c55057",
            "0x000000000000000000000000ae87f9bd09895f1aa21c5023b61ecd85eba515d1",
            "0x00000000000000000000000082af49447d8a07e3bd95bd0d56f35241523fbab1"
          ],
          "data": "0x00000000000000000000000083e434872c1b57e91f89a8782ca1a432da840b7f0000000000000000000000000000000000000000000000000000000000000000",
          "blockHash": "0x5dcd0991ef99730fdddfd06cb527e8ac9bec46c13c126d2861e49099f046cb9c",
          "blockNumber": "0x1089ce7c",
          "transactionHash": "0xeda4ca4209308ba3d9ec0c46834ae42c56d17997907d64c9cdee9453678dd6b5",
          "transactionIndex": "0xa",
          "logIndex": "0x3c",
          "removed": false
        },
        {
          "address": "0x017d527775e3447fe6e17175f1d8ad4f49fc849d",
          "topics": [
            "0xb5a9def940973a936e331170816650368964b0602957d4bc60f5ddc2dc1b69cd"
          ],
          "data": "0x000000000000000000000000000000000000000000000000000000000000000000000000000000000000000083e434872c1b57e91f89a8782ca1a432da840b7f",
          "blockHash": "0x5dcd0991ef99730fdddfd06cb527e8ac9bec46c13c126d2861e49099f046cb9c",
          "blockNumber": "0x1089ce7c",
          "transactionHash": "0xeda4ca4209308ba3d9ec0c46834ae42c56d17997907d64c9cdee9453678dd6b5",
          "transactionIndex": "0xa",
          "logIndex": "0x3d",
          "removed": false
        },
        {
          "address": "0x017d527775e3447fe6e17175f1d8ad4f49fc849d",
          "topics": [
            "0x342827c97908e5e2f71151c08502a66d44b6f758e3ac2f1de95f02eb95f0a735"
          ],
          "data": "0x0000000000000000000000000000000000000000000000000000000000000000000000000000000000000000ae87f9bd09895f1aa21c5023b61ecd85eba515d1",
          "blockHash": "0x5dcd0991ef99730fdddfd06cb527e8ac9bec46c13c126d2861e49099f046cb9c",
          "blockNumber": "0x1089ce7c",
          "transactionHash": "0xeda4ca4209308ba3d9ec0c46834ae42c56d17997907d64c9cdee9453678dd6b5",
          "transactionIndex": "0xa",
          "logIndex": "0x3e",
          "removed": false
        },
        {
          "address": "0x017d527775e3447fe6e17175f1d8ad4f49fc849d",
          "topics": [
            "0xe504a0278c9d64c1a72d2f528a0c5e3686e093fcd478b3b1224a5c6983207df6"
          ],
          "data": "0x0000000000000000000000000000000000000000000000000000000000000000000000000000000000000000764222865249a32d4837f5286250efb88439aff6",
          "blockHash": "0x5dcd0991ef99730fdddfd06cb527e8ac9bec46c13c126d2861e49099f046cb9c",
          "blockNumber": "0x1089ce7c",
          "transactionHash": "0xeda4ca4209308ba3d9ec0c46834ae42c56d17997907d64c9cdee9453678dd6b5",
          "transactionIndex": "0xa",
          "logIndex": "0x3f",
          "removed": false
        },
        {
          "address": "0x6bdfdb16148271766bd0813006e4269d270fdd44",
          "topics": [
            "0xa50560b448ad796ef60adfeffe1c19ed34daf94c2aa6905d0e209017dbc19f58",
            "0x0000000000000000000000005bbc7b2bfd7a149a60f4ce98e4ea3cd988efa3a3",
            "0x000000000000000000000000ae87f9bd09895f1aa21c5023b61ecd85eba515d1",
            "0x000000000000000000000000764222865249a32d4837f5286250efb88439aff6"
          ],
          "data": "0x000000000000000000000000017d527775e3447fe6e17175f1d8ad4f49fc849d00000000000000000000000083e434872c1b57e91f89a8782ca1a432da840b7f000000000000000000000000000000000000000000000000000000000000006000000000000000000000000000000000000000000000000000000000000000025454000000000000000000000000000000000000000000000000000000000000",
          "blockHash": "0x5dcd0991ef99730fdddfd06cb527e8ac9bec46c13c126d2861e49099f046cb9c",
          "blockNumber": "0x1089ce7c",
          "transactionHash": "0xeda4ca4209308ba3d9ec0c46834ae42c56d17997907d64c9cdee9453678dd6b5",
          "transactionIndex": "0xa",
          "logIndex": "0x40",
          "removed": false
        },
        {
          "address": "0x017d527775e3447fe6e17175f1d8ad4f49fc849d",
          "topics": [
            "0x3e46ff90086ee29856e77591e82c82ff8ed513379b0fd82e84fc5290dd633c99"
          ],
          "data": "0x0000000000000000000000000000000000000000000000000000000000000020000000000000000000000000000000000000000000000000000000000000000a7465737420747261646500000000000000000000000000000000000000000000",
          "blockHash": "0x5dcd0991ef99730fdddfd06cb527e8ac9bec46c13c126d2861e49099f046cb9c",
          "blockNumber": "0x1089ce7c",
          "transactionHash": "0xeda4ca4209308ba3d9ec0c46834ae42c56d17997907d64c9cdee9453678dd6b5",
          "transactionIndex": "0xa",
          "logIndex": "0x41",
          "removed": false
        },
        {
          "address": "0x83e434872c1b57e91f89a8782ca1a432da840b7f",
          "topics": [
            "0x5be181178e61e61e33f79c396c7194b8f3c80f77899da7bd96fe537411300bcb"
          ],
          "data": "0x000000000000000000000000017d527775e3447fe6e17175f1d8ad4f49fc849d",
          "blockHash": "0x5dcd0991ef99730fdddfd06cb527e8ac9bec46c13c126d2861e49099f046cb9c",
          "blockNumber": "0x1089ce7c",
          "transactionHash": "0xeda4ca4209308ba3d9ec0c46834ae42c56d17997907d64c9cdee9453678dd6b5",
          "transactionIndex": "0xa",
          "logIndex": "0x42",
          "removed": false
        },
        {
          "address": "0x1dc69c291054171b15a9c0aa273dbfe1c43ffb3f",
          "topics": [
            "0x8852dcaa71340ea616a65ffac013450dfb238607481fb9d78346c667fe256c13",
            "0x00000000000000000000000083e434872c1b57e91f89a8782ca1a432da840b7f",
            "0x000000000000000000000000017d527775e3447fe6e17175f1d8ad4f49fc849d"
          ],
          "data": "0x",
          "blockHash": "0x5dcd0991ef99730fdddfd06cb527e8ac9bec46c13c126d2861e49099f046cb9c",
          "blockNumber": "0x1089ce7c",
          "transactionHash": "0xeda4ca4209308ba3d9ec0c46834ae42c56d17997907d64c9cdee9453678dd6b5",
          "transactionIndex": "0xa",
          "logIndex": "0x43",
          "removed": false
        },
        {
          "address": "0x369373de3a389047ad7e7846470eb8324fc3fe8e",
          "topics": [
            "0x8852dcaa71340ea616a65ffac013450dfb238607481fb9d78346c667fe256c13",
            "0x00000000000000000000000083e434872c1b57e91f89a8782ca1a432da840b7f",
            "0x000000000000000000000000017d527775e3447fe6e17175f1d8ad4f49fc849d"
          ],
          "data": "0x",
          "blockHash": "0x5dcd0991ef99730fdddfd06cb527e8ac9bec46c13c126d2861e49099f046cb9c",
          "blockNumber": "0x1089ce7c",
          "transactionHash": "0xeda4ca4209308ba3d9ec0c46834ae42c56d17997907d64c9cdee9453678dd6b5",
          "transactionIndex": "0xa",
          "logIndex": "0x44",
          "removed": false
        },
        {
          "address": "0x29d1303a0a44b1c6dda9ae9af9c483eb96a4a395",
          "topics": [
            "0x8852dcaa71340ea616a65ffac013450dfb238607481fb9d78346c667fe256c13",
            "0x00000000000000000000000083e434872c1b57e91f89a8782ca1a432da840b7f",
            "0x000000000000000000000000017d527775e3447fe6e17175f1d8ad4f49fc849d"
          ],
          "data": "0x",
          "blockHash": "0x5dcd0991ef99730fdddfd06cb527e8ac9bec46c13c126d2861e49099f046cb9c",
          "blockNumber": "0x1089ce7c",
          "transactionHash": "0xeda4ca4209308ba3d9ec0c46834ae42c56d17997907d64c9cdee9453678dd6b5",
          "transactionIndex": "0xa",
          "logIndex": "0x45",
          "removed": false
        },
        {
          "address": "0x017d527775e3447fe6e17175f1d8ad4f49fc849d",
          "topics": [
            "0xa0d2bfad19dc0c6970d2a2fcff65458a6d7c4fa3b6d904f44961b2c744bdf591"
          ],
          "data": "0x00000000000000000000000082af49447d8a07e3bd95bd0d56f35241523fbab1",
          "blockHash": "0x5dcd0991ef99730fdddfd06cb527e8ac9bec46c13c126d2861e49099f046cb9c",
          "blockNumber": "0x1089ce7c",
          "transactionHash": "0xeda4ca4209308ba3d9ec0c46834ae42c56d17997907d64c9cdee9453678dd6b5",
          "transactionIndex": "0xa",
          "logIndex": "0x46",
          "removed": false
        },
        {
          "address": "0x24f027f71e3f97205a6b0372e24197d635da3ae1",
          "topics": [
            "0xd3ba69979a943b00f5eea9e34dba3f3104dcf0c16890e7d8c693a0d52de07458"
          ],
          "data": "0x000000000000000000000000017d527775e3447fe6e17175f1d8ad4f49fc849d",
          "blockHash": "0x5dcd0991ef99730fdddfd06cb527e8ac9bec46c13c126d2861e49099f046cb9c",
          "blockNumber": "0x1089ce7c",
          "transactionHash": "0xeda4ca4209308ba3d9ec0c46834ae42c56d17997907d64c9cdee9453678dd6b5",
          "transactionIndex": "0xa",
          "logIndex": "0x47",
          "removed": false
        },
        {
          "address": "0x5bbc7b2bfd7a149a60f4ce98e4ea3cd988efa3a3",
          "topics": [
            "0x04dab3bc63cc7e4b52aa28a026644559e2937d78dbf7b81e26dfecdd8bbe33b9",
            "0x000000000000000000000000ae87f9bd09895f1aa21c5023b61ecd85eba515d1"
          ],
          "data": "0x000000000000000000000000017d527775e3447fe6e17175f1d8ad4f49fc849d00000000000000000000000083e434872c1b57e91f89a8782ca1a432da840b7f",
          "blockHash": "0x5dcd0991ef99730fdddfd06cb527e8ac9bec46c13c126d2861e49099f046cb9c",
          "blockNumber": "0x1089ce7c",
          "transactionHash": "0xeda4ca4209308ba3d9ec0c46834ae42c56d17997907d64c9cdee9453678dd6b5",
          "transactionIndex": "0xa",
          "logIndex": "0x48",
          "removed": false
        }
      ],
      "logsBloom": "0x20000000800100000000000004000100000000000400000000000000020000000010000000008000080000000000008000000000000000200000420020600008000000100052200002000000800004030100800001000000000000000000008400000000000000000000000480000000040000020000080000000000000000000000008000020000000402000000000000000000000000000000000004000000040000010000010000000000000800000000000000408001000000000040020000000100000000008000802000000000100000802000000000200002000000000000020000800000124000008202000000810000201000800000000000000000",
      "type": "0x2",
      "transactionHash": "0xeda4ca4209308ba3d9ec0c46834ae42c56d17997907d64c9cdee9453678dd6b5",
      "transactionIndex": "0xa",
      "blockHash": "0x5dcd0991ef99730fdddfd06cb527e8ac9bec46c13c126d2861e49099f046cb9c",
      "blockNumber": "0x1089ce7c",
      "gasUsed": "0xa80aa",
      "effectiveGasPrice": "0x989680",
      "from": "0xae87f9bd09895f1aa21c5023b61ecd85eba515d1",
      "to": "0x5bbc7b2bfd7a149a60f4ce98e4ea3cd988efa3a3",
      "contractAddress": null,
      "gasUsedForL1": "0x1530b",
      "l1BlockNumber": "0x144410b"
    }
  ],
  "libraries": [],
  "pending": [],
  "returns": {},
  "timestamp": 1732363403,
  "chain": 42161,
  "commit": "263fe2e"
}