{
  "transactions": [
    {
      "hash": "0x9e3fb056b7954e6ab867e8f2b6ab4d07658eab10b65268472ca3a1ddfca7d9b1",
      "transactionType": "CALL",
      "contractName": null,
      "contractAddress": "0x36da4b48f8a2c6b5628d444f97f8edb1b19f9b9d",
      "function": "createNewFund(address,string,string,address,uint256,bytes,bytes)",
      "arguments": [
        "0xaE87F9BD09895f1aA21c5023b61EcD85Eba515D1",
        "Test Fund2",
        "",
        "0x82aF49447D8a07e3bd95BD0d56f35241523fBab1",
        "0",
        "0x",
        "0x"
      ],
      "transaction": {
        "from": "0xae87f9bd09895f1aa21c5023b61ecd85eba515d1",
        "to": "0x36da4b48f8a2c6b5628d444f97f8edb1b19f9b9d",
        "gas": "0xc49e4",
        "value": "0x0",
        "input": "0xc83980dd000000000000000000000000ae87f9bd09895f1aa21c5023b61ecd85eba515d100000000000000000000000000000000000000000000000000000000000000e0000000000000000000000000000000000000000000000000000000000000012000000000000000000000000082af49447d8a07e3bd95bd0d56f35241523fbab1000000000000000000000000000000000000000000000000000000000000000000000000000000000000000000000000000000000000000000000000000001400000000000000000000000000000000000000000000000000000000000000160000000000000000000000000000000000000000000000000000000000000000a546573742046756e643200000000000000000000000000000000000000000000000000000000000000000000000000000000000000000000000000000000000000000000000000000000000000000000000000000000000000000000000000000000000000000000000000000000000000000000000000000000000000000000",
        "nonce": "0xc0",
        "chainId": "0xa4b1"
      },
      "additionalContracts": [],
      "isFixedGasLimit": false
    }
  ],
  "receipts": [
    {
      "status": "0x1",
      "cumulativeGasUsed": "0x92b36",
      "logs": [
        {
          "address": "0x36da4b48f8a2c6b5628d444f97f8edb1b19f9b9d",
          "topics": [
            "0x19dbe5ac5bcfdc5074f78d1e907e1dce6f6e3b50a56b50d990926abaf9c55057",
            "0x000000000000000000000000ae87f9bd09895f1aa21c5023b61ecd85eba515d1",
            "0x00000000000000000000000082af49447d8a07e3bd95bd0d56f35241523fbab1"
          ],
          "data": "0x00000000000000000000000077cc5f063ea3b1dcbf6e4fb7cd0d450f5bdcda2e0000000000000000000000000000000000000000000000000000000000000000",
          "blockHash": "0xbc1e7a23e9e2bfbe99ed0ac968262fb49e2d247c87d48ddefcff1193d5f8f867",
          "blockNumber": "0x107e8e70",
          "transactionHash": "0x9e3fb056b7954e6ab867e8f2b6ab4d07658eab10b65268472ca3a1ddfca7d9b1",
          "transactionIndex": "0x1",
          "logIndex": "0x0",
          "removed": false
        },
        {
          "address": "0x7ae2fd17e811cde38a683ced7c02ad9afdc50e74",
          "topics": [
            "0xb5a9def940973a936e331170816650368964b0602957d4bc60f5ddc2dc1b69cd"
          ],
          "data": "0x000000000000000000000000000000000000000000000000000000000000000000000000000000000000000077cc5f063ea3b1dcbf6e4fb7cd0d450f5bdcda2e",
          "blockHash": "0xbc1e7a23e9e2bfbe99ed0ac968262fb49e2d247c87d48ddefcff1193d5f8f867",
          "blockNumber": "0x107e8e70",
          "transactionHash": "0x9e3fb056b7954e6ab867e8f2b6ab4d07658eab10b65268472ca3a1ddfca7d9b1",
          "transactionIndex": "0x1",
          "logIndex": "0x1",
          "removed": false
        },
        {
          "address": "0x7ae2fd17e811cde38a683ced7c02ad9afdc50e74",
          "topics": [
            "0x342827c97908e5e2f71151c08502a66d44b6f758e3ac2f1de95f02eb95f0a735"
          ],
          "data": "0x0000000000000000000000000000000000000000000000000000000000000000000000000000000000000000ae87f9bd09895f1aa21c5023b61ecd85eba515d1",
          "blockHash": "0xbc1e7a23e9e2bfbe99ed0ac968262fb49e2d247c87d48ddefcff1193d5f8f867",
          "blockNumber": "0x107e8e70",
          "transactionHash": "0x9e3fb056b7954e6ab867e8f2b6ab4d07658eab10b65268472ca3a1ddfca7d9b1",
          "transactionIndex": "0x1",
          "logIndex": "0x2",
          "removed": false
        },
        {
          "address": "0x7ae2fd17e811cde38a683ced7c02ad9afdc50e74",
          "topics": [
            "0xe504a0278c9d64c1a72d2f528a0c5e3686e093fcd478b3b1224a5c6983207df6"
          ],
          "data": "0x0000000000000000000000000000000000000000000000000000000000000000000000000000000000000000fdc26b5f9cccfc07f52b9b945150b668830863c0",
          "blockHash": "0xbc1e7a23e9e2bfbe99ed0ac968262fb49e2d247c87d48ddefcff1193d5f8f867",
          "blockNumber": "0x107e8e70",
          "transactionHash": "0x9e3fb056b7954e6ab867e8f2b6ab4d07658eab10b65268472ca3a1ddfca7d9b1",
          "transactionIndex": "0x1",
          "logIndex": "0x3",
          "removed": false
        },
        {
          "address": "0x282d075e379042142a4657f8e692208cad9cd574",
          "topics": [
            "0xa50560b448ad796ef60adfeffe1c19ed34daf94c2aa6905d0e209017dbc19f58",
            "0x00000000000000000000000036da4b48f8a2c6b5628d444f97f8edb1b19f9b9d",
            "0x000000000000000000000000ae87f9bd09895f1aa21c5023b61ecd85eba515d1",
            "0x000000000000000000000000fdc26b5f9cccfc07f52b9b945150b668830863c0"
          ],
          "data": "0x0000000000000000000000007ae2fd17e811cde38a683ced7c02ad9afdc50e7400000000000000000000000077cc5f063ea3b1dcbf6e4fb7cd0d450f5bdcda2e0000000000000000000000000000000000000000000000000000000000000060000000000000000000000000000000000000000000000000000000000000000a546573742046756e643200000000000000000000000000000000000000000000",
          "blockHash": "0xbc1e7a23e9e2bfbe99ed0ac968262fb49e2d247c87d48ddefcff1193d5f8f867",
          "blockNumber": "0x107e8e70",
          "transactionHash": "0x9e3fb056b7954e6ab867e8f2b6ab4d07658eab10b65268472ca3a1ddfca7d9b1",
          "transactionIndex": "0x1",
          "logIndex": "0x4",
          "removed": false
        },
        {
          "address": "0x77cc5f063ea3b1dcbf6e4fb7cd0d450f5bdcda2e",
          "topics": [
            "0x5be181178e61e61e33f79c396c7194b8f3c80f77899da7bd96fe537411300bcb"
          ],
          "data": "0x0000000000000000000000007ae2fd17e811cde38a683ced7c02ad9afdc50e74",
          "blockHash": "0xbc1e7a23e9e2bfbe99ed0ac968262fb49e2d247c87d48ddefcff1193d5f8f867",
          "blockNumber": "0x107e8e70",
          "transactionHash": "0x9e3fb056b7954e6ab867e8f2b6ab4d07658eab10b65268472ca3a1ddfca7d9b1",
          "transactionIndex": "0x1",
          "logIndex": "0x5",
          "removed": false
        },
        {
          "address": "0x9a702d65c594657ccdad24d57afee73f26fb0a8f",
          "topics": [
            "0x8852dcaa71340ea616a65ffac013450dfb238607481fb9d78346c667fe256c13",
            "0x00000000000000000000000077cc5f063ea3b1dcbf6e4fb7cd0d450f5bdcda2e",
            "0x0000000000000000000000007ae2fd17e811cde38a683ced7c02ad9afdc50e74"
          ],
          "data": "0x",
          "blockHash": "0xbc1e7a23e9e2bfbe99ed0ac968262fb49e2d247c87d48ddefcff1193d5f8f867",
          "blockNumber": "0x107e8e70",
          "transactionHash": "0x9e3fb056b7954e6ab867e8f2b6ab4d07658eab10b65268472ca3a1ddfca7d9b1",
          "transactionIndex": "0x1",
          "logIndex": "0x6",
          "removed": false
        },
        {
          "address": "0x4b6d70dc4ddbf1d6275646b5643ccf5a6e8f53fe",
          "topics": [
            "0x8852dcaa71340ea616a65ffac013450dfb238607481fb9d78346c667fe256c13",
            "0x00000000000000000000000077cc5f063ea3b1dcbf6e4fb7cd0d450f5bdcda2e",
            "0x0000000000000000000000007ae2fd17e811cde38a683ced7c02ad9afdc50e74"
          ],
          "data": "0x",
          "blockHash": "0xbc1e7a23e9e2bfbe99ed0ac968262fb49e2d247c87d48ddefcff1193d5f8f867",
          "blockNumber": "0x107e8e70",
          "transactionHash": "0x9e3fb056b7954e6ab867e8f2b6ab4d07658eab10b65268472ca3a1ddfca7d9b1",
          "transactionIndex": "0x1",
          "logIndex": "0x7",
          "removed": false
        },
        {
          "address": "0xe8f716561b3ddb5a01c08c0e8dbfed77fe5229fd",
          "topics": [
            "0x8852dcaa71340ea616a65ffac013450dfb238607481fb9d78346c667fe256c13",
            "0x00000000000000000000000077cc5f063ea3b1dcbf6e4fb7cd0d450f5bdcda2e",
            "0x0000000000000000000000007ae2fd17e811cde38a683ced7c02ad9afdc50e74"
          ],
          "data": "0x",
          "blockHash": "0xbc1e7a23e9e2bfbe99ed0ac968262fb49e2d247c87d48ddefcff1193d5f8f867",
          "blockNumber": "0x107e8e70",
          "transactionHash": "0x9e3fb056b7954e6ab867e8f2b6ab4d07658eab10b65268472ca3a1ddfca7d9b1",
          "transactionIndex": "0x1",
          "logIndex": "0x8",
          "removed": false
        },
        {
          "address": "0x7ae2fd17e811cde38a683ced7c02ad9afdc50e74",
          "topics": [
            "0xa0d2bfad19dc0c6970d2a2fcff65458a6d7c4fa3b6d904f44961b2c744bdf591"
          ],
          "data": "0x00000000000000000000000082af49447d8a07e3bd95bd0d56f35241523fbab1",
          "blockHash": "0xbc1e7a23e9e2bfbe99ed0ac968262fb49e2d247c87d48ddefcff1193d5f8f867",
          "blockNumber": "0x107e8e70",
          "transactionHash": "0x9e3fb056b7954e6ab867e8f2b6ab4d07658eab10b65268472ca3a1ddfca7d9b1",
          "transactionIndex": "0x1",
          "logIndex": "0x9",
          "removed": false
        },
        {
          "address": "0x7a52d861ed272b7f974d64acbac14f6b9218ad45",
          "topics": [
            "0xd3ba69979a943b00f5eea9e34dba3f3104dcf0c16890e7d8c693a0d52de07458"
          ],
          "data": "0x0000000000000000000000007ae2fd17e811cde38a683ced7c02ad9afdc50e74",
          "blockHash": "0xbc1e7a23e9e2bfbe99ed0ac968262fb49e2d247c87d48ddefcff1193d5f8f867",
          "blockNumber": "0x107e8e70",
          "transactionHash": "0x9e3fb056b7954e6ab867e8f2b6ab4d07658eab10b65268472ca3a1ddfca7d9b1",
          "transactionIndex": "0x1",
          "logIndex": "0xa",
          "removed": false
        },
        {
          "address": "0x36da4b48f8a2c6b5628d444f97f8edb1b19f9b9d",
          "topics": [
            "0x04dab3bc63cc7e4b52aa28a026644559e2937d78dbf7b81e26dfecdd8bbe33b9",
            "0x000000000000000000000000ae87f9bd09895f1aa21c5023b61ecd85eba515d1"
          ],
          "data": "0x0000000000000000000000007ae2fd17e811cde38a683ced7c02ad9afdc50e7400000000000000000000000077cc5f063ea3b1dcbf6e4fb7cd0d450f5bdcda2e",
          "blockHash": "0xbc1e7a23e9e2bfbe99ed0ac968262fb49e2d247c87d48ddefcff1193d5f8f867",
          "blockNumber": "0x107e8e70",
          "transactionHash": "0x9e3fb056b7954e6ab867e8f2b6ab4d07658eab10b65268472ca3a1ddfca7d9b1",
          "transactionIndex": "0x1",
          "logIndex": "0xb",
          "removed": false
        }
      ],
      "logsBloom": "0x2000000000010000000000000000000000800000040000000000000000000000001000000000800088000000100408800000000000000020000002000000000800000800001220010000000080000083010080000800000000000040000090040000000000000020000000000000000004000000000000000200000000000040000000800022000000040210000400040c00000000000000000000000000041004000000000000000000000000000000000000000000800100000000004100000000010000140010000000200000000000080000001000000000000000000000000002000000000012100040a000000000001000001000800000200020000000",
      "type": "0x2",
      "transactionHash": "0x9e3fb056b7954e6ab867e8f2b6ab4d07658eab10b65268472ca3a1ddfca7d9b1",
      "transactionIndex": "0x1",
      "blockHash": "0xbc1e7a23e9e2bfbe99ed0ac968262fb49e2d247c87d48ddefcff1193d5f8f867",
      "blockNumber": "0x107e8e70",
      "gasUsed": "0x92b36",
      "effectiveGasPrice": "0x1058920",
      "from": "0xae87f9bd09895f1aa21c5023b61ecd85eba515d1",
      "to": "0x36da4b48f8a2c6b5628d444f97f8edb1b19f9b9d",
      "contractAddress": null,
      "gasUsedForL1": "0x6d00",
      "l1BlockNumber": "0x14404fd"
    }
  ],
  "libraries": [],
  "pending": [],
  "returns": {},
  "timestamp": 1732178078,
  "chain": 42161,
  "commit": "d71f217"
}