{
  "transactions": [
    {
      "hash": "0x77e6b7988f622097c68c1e36562e0dccbd4e9339e237ff89985a9c8d0bd82f23",
      "transactionType": "CALL",
      "contractName": null,
      "contractAddress": "0xd3065e02e538076613ff42065cc238495bcdeda3",
      "function": "createList(address,uint8,address[])",
      "arguments": [
        "0x9fBDE4f4A89847cB0E6bd04F1AEF02AE9778B99C",
        "3",
        "[]"
      ],
      "transaction": {
        "from": "0xae87f9bd09895f1aa21c5023b61ecd85eba515d1",
        "to": "0xd3065e02e538076613ff42065cc238495bcdeda3",
        "gas": "0x48e61",
        "value": "0x0",
        "input": "0xbe68406e0000000000000000000000009fbde4f4a89847cb0e6bd04f1aef02ae9778b99c000000000000000000000000000000000000000000000000000000000000000300000000000000000000000000000000000000000000000000000000000000600000000000000000000000000000000000000000000000000000000000000000",
        "nonce": "0x52",
        "chainId": "0xa4b1"
      },
      "additionalContracts": [],
      "isFixedGasLimit": false
    }
  ],
  "receipts": [
    {
      "status": "0x1",
      "cumulativeGasUsed": "0x268f31",
      "logs": [
        {
          "address": "0xd3065e02e538076613ff42065cc238495bcdeda3",
          "topics": [
            "0xc2b2d696fda57bcf0347d9ea036ce8258434f4171cd131b4c1d22a6f0ae960d2",
            "0x000000000000000000000000ae87f9bd09895f1aa21c5023b61ecd85eba515d1",
            "0x0000000000000000000000009fbde4f4a89847cb0e6bd04f1aef02ae9778b99c"
          ],
          "data": "0x00000000000000000000000000000000000000000000000000000000000000030000000000000000000000000000000000000000000000000000000000000003",
          "blockHash": "0x85ba991fd8b1d3838222fd6c626a79efdad1ceb3b5a30f462cd225c80cc9fe3c",
          "blockNumber": "0x105eadad",
          "transactionHash": "0x77e6b7988f622097c68c1e36562e0dccbd4e9339e237ff89985a9c8d0bd82f23",
          "transactionIndex": "0x8",
          "logIndex": "0x13",
          "removed": false
        }
      ],
      "logsBloom": "0x00000000000000000000000000000000000000000000000000000000000000000000000000000000010000000000000000000000000000000000020000000008000000000000000000000000000000000000000000000000000000000000000000000000000000000000000000000000000000000000000000000000000000000080800000000000000000000000000010000000001000000000000000000000000000000000000000000000000000000000000000008000000000000000000000010000000000000000000000000000000000000000000000000000000000000000000000000008000000000000000002000000000000080000000000000000",
      "type": "0x2",
      "transactionHash": "0x77e6b7988f622097c68c1e36562e0dccbd4e9339e237ff89985a9c8d0bd82f23",
      "transactionIndex": "0x8",
      "blockHash": "0x85ba991fd8b1d3838222fd6c626a79efdad1ceb3b5a30f462cd225c80cc9fe3c",
      "blockNumber": "0x105eadad",
      "gasUsed": "0x2eefe",
      "effectiveGasPrice": "0x989680",
      "from": "0xae87f9bd09895f1aa21c5023b61ecd85eba515d1",
      "to": "0xd3065e02e538076613ff42065cc238495bcdeda3",
      "contractAddress": null,
      "gasUsedForL1": "0x220fc",
      "l1BlockNumber": "0x1435adf"
    }
  ],
  "libraries": [],
  "pending": [],
  "returns": {},
  "timestamp": 1731653167,
  "chain": 42161,
  "commit": "cd0e1ef"
}