{
  "transactions": [
    {
      "hash": "0xd0dc54141d5f096a78bffe4b94c72516a944171c5244857751e600f08d096cab",
      "transactionType": "CALL",
      "contractName": null,
      "contractAddress": "0xd3065e02e538076613ff42065cc238495bcdeda3",
      "function": "createList(address,uint8,address[])",
      "arguments": [
        "0x9fBDE4f4A89847cB0E6bd04F1AEF02AE9778B99C",
        "3",
        "[]"
      ],
      "transaction": {
        "from": "0xae87f9bd09895f1aa21c5023b61ecd85eba515d1",
        "to": "0xd3065e02e538076613ff42065cc238495bcdeda3",
        "gas": "0x3b95e",
        "value": "0x0",
        "input": "0xbe68406e0000000000000000000000009fbde4f4a89847cb0e6bd04f1aef02ae9778b99c000000000000000000000000000000000000000000000000000000000000000300000000000000000000000000000000000000000000000000000000000000600000000000000000000000000000000000000000000000000000000000000000",
        "nonce": "0x51",
        "chainId": "0xa4b1"
      },
      "additionalContracts": [],
      "isFixedGasLimit": false
    }
  ],
  "receipts": [
    {
      "status": "0x1",
      "cumulativeGasUsed": "0xcb3b8",
      "logs": [
        {
          "address": "0xd3065e02e538076613ff42065cc238495bcdeda3",
          "topics": [
            "0xc2b2d696fda57bcf0347d9ea036ce8258434f4171cd131b4c1d22a6f0ae960d2",
            "0x000000000000000000000000ae87f9bd09895f1aa21c5023b61ecd85eba515d1",
            "0x0000000000000000000000009fbde4f4a89847cb0e6bd04f1aef02ae9778b99c"
          ],
          "data": "0x00000000000000000000000000000000000000000000000000000000000000020000000000000000000000000000000000000000000000000000000000000003",
          "blockHash": "0xb14cc313821faab27b7e91ca020225f7d5c9386caecd79c39dbe89f9dbb59f9f",
          "blockNumber": "0x105eac24",
          "transactionHash": "0xd0dc54141d5f096a78bffe4b94c72516a944171c5244857751e600f08d096cab",
          "transactionIndex": "0x3",
          "logIndex": "0xe",
          "removed": false
        }
      ],
      "logsBloom": "0x00000000000000000000000000000000000000000000000000000000000000000000000000000000010000000000000000000000000000000000020000000008000000000000000000000000000000000000000000000000000000000000000000000000000000000000000000000000000000000000000000000000000000000080800000000000000000000000000010000000001000000000000000000000000000000000000000000000000000000000000000008000000000000000000000010000000000000000000000000000000000000000000000000000000000000000000000000008000000000000000002000000000000080000000000000000",
      "type": "0x2",
      "transactionHash": "0xd0dc54141d5f096a78bffe4b94c72516a944171c5244857751e600f08d096cab",
      "transactionIndex": "0x3",
      "blockHash": "0xb14cc313821faab27b7e91ca020225f7d5c9386caecd79c39dbe89f9dbb59f9f",
      "blockNumber": "0x105eac24",
      "gasUsed": "0x2627b",
      "effectiveGasPrice": "0x989680",
      "from": "0xae87f9bd09895f1aa21c5023b61ecd85eba515d1",
      "to": "0xd3065e02e538076613ff42065cc238495bcdeda3",
      "contractAddress": null,
      "gasUsedForL1": "0x19479",
      "l1BlockNumber": "0x1435ad7"
    }
  ],
  "libraries": [],
  "pending": [],
  "returns": {},
  "timestamp": 1731653071,
  "chain": 42161,
  "commit": "cd0e1ef"
}