{
  "transactions": [
    {
      "hash": "0x36bc7b4449a9647c82f65aa86d8d107d3d5855a1d5d8aa0e5c6ecabf6513b873",
      "transactionType": "CALL",
      "contractName": null,
      "contractAddress": "0xd3065e02e538076613ff42065cc238495bcdeda3",
      "function": "addToList(uint256,address[])",
      "arguments": [
        "5",
        "[0xDEF171Fe48CF0115B1d80b88dc8eAB59176FEe57]"
      ],
      "transaction": {
        "from": "0xae87f9bd09895f1aa21c5023b61ecd85eba515d1",
        "to": "0xd3065e02e538076613ff42065cc238495bcdeda3",
        "gas": "0x3cb43",
        "value": "0x0",
        "input": "0x8da3d736000000000000000000000000000000000000000000000000000000000000000500000000000000000000000000000000000000000000000000000000000000400000000000000000000000000000000000000000000000000000000000000001000000000000000000000000def171fe48cf0115b1d80b88dc8eab59176fee57",
        "nonce": "0x57",
        "chainId": "0xa4b1"
      },
      "additionalContracts": [],
      "isFixedGasLimit": false
    }
  ],
  "receipts": [
    {
      "status": "0x1",
      "cumulativeGasUsed": "0x95d8f",
      "logs": [
        {
          "address": "0xd3065e02e538076613ff42065cc238495bcdeda3",
          "topics": [
            "0xb8848f994c7d66cdc76defd3606ffefb56ad840b408bf51230110196d5f4d8c4",
            "0x0000000000000000000000000000000000000000000000000000000000000005"
          ],
          "data": "0x000000000000000000000000def171fe48cf0115b1d80b88dc8eab59176fee57",
          "blockHash": "0xfd573fb771eb2f25f7f12cb6598c8a83c0df9c0d501b1f26a67536523474d0de",
          "blockNumber": "0x105f1f19",
          "transactionHash": "0x36bc7b4449a9647c82f65aa86d8d107d3d5855a1d5d8aa0e5c6ecabf6513b873",
          "transactionIndex": "0x2",
          "logIndex": "0x5",
          "removed": false
        }
      ],
      "logsBloom": "0x00000000000000000000000000000000000000000000000000000000000020000000000000028000000000000000000000000000000000000000000000000000000010000000000000000000000000000000000000000000000000000000000000000000000000000000000000000000000000000000000000000000000000000000800000000000000000000000001010000800000000000000000000000000000000000000000000000000000000000000000000000000000000000000000000000000000000000000000000000000000000000000000000000000000000000000000000000008000000000000000000000000000000000000000000000000",
      "type": "0x2",
      "transactionHash": "0x36bc7b4449a9647c82f65aa86d8d107d3d5855a1d5d8aa0e5c6ecabf6513b873",
      "transactionIndex": "0x2",
      "blockHash": "0xfd573fb771eb2f25f7f12cb6598c8a83c0df9c0d501b1f26a67536523474d0de",
      "blockNumber": "0x105f1f19",
      "gasUsed": "0x26157",
      "effectiveGasPrice": "0xa4b028",
      "from": "0xae87f9bd09895f1aa21c5023b61ecd85eba515d1",
      "to": "0xd3065e02e538076613ff42065cc238495bcdeda3",
      "contractAddress": null,
      "gasUsedForL1": "0x17f5b",
      "l1BlockNumber": "0x1435d3e"
    }
  ],
  "libraries": [],
  "pending": [],
  "returns": {},
  "timestamp": 1731660476,
  "chain": 42161,
  "commit": "cd0e1ef"
}