{
  "transactions": [
    {
      "hash": "0xc009a9f22991c99dfed5636f961f40949ad9746574f8f0ce45fb191e97257a25",
      "transactionType": "CALL",
      "contractName": null,
      "contractAddress": "0x162575e9317884467dc14a7981cdfe78142e8b72",
      "function": "exchangeEthAndBuyShares(address,uint256,address,address,bytes,uint256)",
      "arguments": [
        "0x83e434872C1b57e91F89a8782cA1a432Da840b7f",
        "1000",
        "0x0000000000000000000000000000000000000000",
        "0x0000000000000000000000000000000000000000",
        "0x",
        "1000"
      ],
      "transaction": {
        "from": "0xae87f9bd09895f1aa21c5023b61ecd85eba515d1",
        "to": "0x162575e9317884467dc14a7981cdfe78142e8b72",
        "gas": "0x7ae82",
        "value": "0x9184e72a000",
        "input": "0x9a98f01b00000000000000000000000083e434872c1b57e91f89a8782ca1a432da840b7f00000000000000000000000000000000000000000000000000000000000003e80000000000000000000000000000000000000000000000000000000000000000000000000000000000000000000000000000000000000000000000000000000000000000000000000000000000000000000000000000000000000000000000c000000000000000000000000000000000000000000000000000000000000003e80000000000000000000000000000000000000000000000000000000000000000",
        "nonce": "0x116",
        "chainId": "0xa4b1"
      },
      "additionalContracts": [],
      "isFixedGasLimit": false
    }
  ],
  "receipts": [
    {
      "status": "0x1",
      "cumulativeGasUsed": "0x7c185",
      "logs": [
        {
          "address": "0x82af49447d8a07e3bd95bd0d56f35241523fbab1",
          "topics": [
            "0xddf252ad1be2c89b69c2b068fc378daa952ba7f163c4a11628f55a4df523b3ef",
            "0x0000000000000000000000000000000000000000000000000000000000000000",
            "0x000000000000000000000000162575e9317884467dc14a7981cdfe78142e8b72"
          ],
          "data": "0x000000000000000000000000000000000000000000000000000009184e72a000",
          "blockHash": "0x6128a754ae7257634453bce24130af7b39f0304d565cedf7d311c84f06ddf9e2",
          "blockNumber": "0x1089d7f0",
          "transactionHash": "0xc009a9f22991c99dfed5636f961f40949ad9746574f8f0ce45fb191e97257a25",
          "transactionIndex": "0x3",
          "logIndex": "0x2",
          "removed": false
        },
        {
          "address": "0x82af49447d8a07e3bd95bd0d56f35241523fbab1",
          "topics": [
            "0x8c5be1e5ebec7d5bd14f71427d1e84f3dd0314c0f7b2291e5b200ac8c7c3b925",
            "0x000000000000000000000000162575e9317884467dc14a7981cdfe78142e8b72",
            "0x00000000000000000000000083e434872c1b57e91f89a8782ca1a432da840b7f"
          ],
          "data": "0xffffffffffffffffffffffffffffffffffffffffffffffffffffffffffffffff",
          "blockHash": "0x6128a754ae7257634453bce24130af7b39f0304d565cedf7d311c84f06ddf9e2",
          "blockNumber": "0x1089d7f0",
          "transactionHash": "0xc009a9f22991c99dfed5636f961f40949ad9746574f8f0ce45fb191e97257a25",
          "transactionIndex": "0x3",
          "logIndex": "0x3",
          "removed": false
        },
        {
          "address": "0x24f027f71e3f97205a6b0372e24197d635da3ae1",
          "topics": [
            "0x1e6728e7f6ab409f42c28a298d4691e94f5426e54658999f76770bff70e56eaf",
            "0x000000000000000000000000017d527775e3447fe6e17175f1d8ad4f49fc849d"
          ],
          "data": "0x0000000000000000000000000000000000000000000000000000000000000000000000000000000000000000000000000000000000000000000000000000025d",
          "blockHash": "0x6128a754ae7257634453bce24130af7b39f0304d565cedf7d311c84f06ddf9e2",
          "blockNumber": "0x1089d7f0",
          "transactionHash": "0xc009a9f22991c99dfed5636f961f40949ad9746574f8f0ce45fb191e97257a25",
          "transactionIndex": "0x3",
          "logIndex": "0x4",
          "removed": false
        },
        {
          "address": "0x82af49447d8a07e3bd95bd0d56f35241523fbab1",
          "topics": [
            "0xddf252ad1be2c89b69c2b068fc378daa952ba7f163c4a11628f55a4df523b3ef",
            "0x000000000000000000000000162575e9317884467dc14a7981cdfe78142e8b72",
            "0x000000000000000000000000017d527775e3447fe6e17175f1d8ad4f49fc849d"
          ],
          "data": "0x000000000000000000000000000000000000000000000000000009184e72a000",
          "blockHash": "0x6128a754ae7257634453bce24130af7b39f0304d565cedf7d311c84f06ddf9e2",
          "blockNumber": "0x1089d7f0",
          "transactionHash": "0xc009a9f22991c99dfed5636f961f40949ad9746574f8f0ce45fb191e97257a25",
          "transactionIndex": "0x3",
          "logIndex": "0x5",
          "removed": false
        },
        {
          "address": "0x82af49447d8a07e3bd95bd0d56f35241523fbab1",
          "topics": [
            "0x8c5be1e5ebec7d5bd14f71427d1e84f3dd0314c0f7b2291e5b200ac8c7c3b925",
            "0x000000000000000000000000162575e9317884467dc14a7981cdfe78142e8b72",
            "0x00000000000000000000000083e434872c1b57e91f89a8782ca1a432da840b7f"
          ],
          "data": "0xfffffffffffffffffffffffffffffffffffffffffffffffffffff6e7b18d5fff",
          "blockHash": "0x6128a754ae7257634453bce24130af7b39f0304d565cedf7d311c84f06ddf9e2",
          "blockNumber": "0x1089d7f0",
          "transactionHash": "0xc009a9f22991c99dfed5636f961f40949ad9746574f8f0ce45fb191e97257a25",
          "transactionIndex": "0x3",
          "logIndex": "0x6",
          "removed": false
        },
        {
          "address": "0x017d527775e3447fe6e17175f1d8ad4f49fc849d",
          "topics": [
            "0xddf252ad1be2c89b69c2b068fc378daa952ba7f163c4a11628f55a4df523b3ef",
            "0x0000000000000000000000000000000000000000000000000000000000000000",
            "0x000000000000000000000000ae87f9bd09895f1aa21c5023b61ecd85eba515d1"
          ],
          "data": "0x000000000000000000000000000000000000000000000000000009184e72a000",
          "blockHash": "0x6128a754ae7257634453bce24130af7b39f0304d565cedf7d311c84f06ddf9e2",
          "blockNumber": "0x1089d7f0",
          "transactionHash": "0xc009a9f22991c99dfed5636f961f40949ad9746574f8f0ce45fb191e97257a25",
          "transactionIndex": "0x3",
          "logIndex": "0x7",
          "removed": false
        },
        {
          "address": "0x83e434872c1b57e91f89a8782ca1a432da840b7f",
          "topics": [
            "0x849165c18b9d0fb161bcb145e4ab523d350e5c98f1dbbb1960331e7ee3ca6767",
            "0x000000000000000000000000ae87f9bd09895f1aa21c5023b61ecd85eba515d1"
          ],
          "data": "0x000000000000000000000000000000000000000000000000000009184e72a000000000000000000000000000000000000000000000000000000009184e72a000000000000000000000000000000000000000000000000000000009184e72a000",
          "blockHash": "0x6128a754ae7257634453bce24130af7b39f0304d565cedf7d311c84f06ddf9e2",
          "blockNumber": "0x1089d7f0",
          "transactionHash": "0xc009a9f22991c99dfed5636f961f40949ad9746574f8f0ce45fb191e97257a25",
          "transactionIndex": "0x3",
          "logIndex": "0x8",
          "removed": false
        }
      ],
      "logsBloom": "0x00000000010000000000000000001000000000000000000000000000020000000000000000000000000000000000000000004000000000000000020020200008000000010000000000000008000004000000000001000000000000000000008000000000020000000000000400000800000000000000008000000010000000000000000004400010000000000000000000000000000000000000000000000000020000010000010000000000000000000008000000008000000800000000000000000002000000008000800000000000100000800000000000200002400020000010000000000000000000000000000000010000000000000000000000000000",
      "type": "0x2",
      "transactionHash": "0xc009a9f22991c99dfed5636f961f40949ad9746574f8f0ce45fb191e97257a25",
      "transactionIndex": "0x3",
      "blockHash": "0x6128a754ae7257634453bce24130af7b39f0304d565cedf7d311c84f06ddf9e2",
      "blockNumber": "0x1089d7f0",
      "gasUsed": "0x51f26",
      "effectiveGasPrice": "0x989680",
      "from": "0xae87f9bd09895f1aa21c5023b61ecd85eba515d1",
      "to": "0x162575e9317884467dc14a7981cdfe78142e8b72",
      "contractAddress": null,
      "gasUsedForL1": "0x13efd",
      "l1BlockNumber": "0x144413f"
    }
  ],
  "libraries": [],
  "pending": [],
  "returns": {},
  "timestamp": 1732364008,
  "chain": 42161,
  "commit": "263fe2e"
}